{
  "contractName": "PayClaims",
  "abi": [
    {
      "anonymous": false,
      "inputs": [
        {
          "indexed": false,
          "internalType": "uint256",
          "name": "claimId",
          "type": "uint256"
        },
        {
          "indexed": false,
          "internalType": "bytes32[]",
          "name": "medIds",
          "type": "bytes32[]"
        },
        {
          "indexed": false,
          "internalType": "address",
          "name": "patient",
          "type": "address"
        }
      ],
      "name": "LogClaimPaid",
      "type": "event"
    },
    {
      "payable": true,
      "stateMutability": "payable",
      "type": "fallback"
    },
    {
      "constant": true,
      "inputs": [],
      "name": "claimNonce",
      "outputs": [
        {
          "internalType": "uint256",
          "name": "",
          "type": "uint256"
        }
      ],
      "payable": false,
      "stateMutability": "view",
      "type": "function"
    },
    {
      "constant": true,
      "inputs": [],
      "name": "insurer",
      "outputs": [
        {
          "internalType": "address",
          "name": "",
          "type": "address"
        }
      ],
      "payable": false,
      "stateMutability": "view",
      "type": "function"
    },
    {
      "constant": true,
      "inputs": [
        {
          "internalType": "address",
          "name": "",
          "type": "address"
        }
      ],
      "name": "listofInsuredPatients",
      "outputs": [
        {
          "internalType": "bool",
          "name": "",
          "type": "bool"
        }
      ],
      "payable": false,
      "stateMutability": "view",
      "type": "function"
    },
    {
      "constant": true,
      "inputs": [],
      "name": "patient",
      "outputs": [
        {
          "internalType": "address",
          "name": "",
          "type": "address"
        }
      ],
      "payable": false,
      "stateMutability": "view",
      "type": "function"
    },
    {
      "constant": true,
      "inputs": [],
      "name": "pharmacy",
      "outputs": [
        {
          "internalType": "address",
          "name": "",
          "type": "address"
        }
      ],
      "payable": false,
      "stateMutability": "view",
      "type": "function"
    },
    {
      "constant": false,
      "inputs": [
        {
          "internalType": "address",
          "name": "_pharmacy",
          "type": "address"
        },
        {
          "internalType": "address",
          "name": "_insurer",
          "type": "address"
        }
      ],
      "name": "Constructor",
      "outputs": [],
      "payable": false,
      "stateMutability": "nonpayable",
      "type": "function"
    },
    {
      "constant": false,
      "inputs": [
        {
          "internalType": "address",
          "name": "_patient",
          "type": "address"
        },
        {
          "internalType": "bool",
          "name": "_validity",
          "type": "bool"
        }
      ],
      "name": "updatedPatient",
      "outputs": [],
      "payable": false,
      "stateMutability": "nonpayable",
      "type": "function"
    },
    {
      "constant": false,
      "inputs": [
        {
          "internalType": "uint256",
          "name": "claimId",
          "type": "uint256"
        },
        {
          "internalType": "bytes32[]",
          "name": "medIds",
          "type": "bytes32[]"
        },
        {
          "internalType": "bytes32",
          "name": "PatientR",
          "type": "bytes32"
        },
        {
          "internalType": "bytes32",
          "name": "PatientS",
          "type": "bytes32"
        },
        {
          "internalType": "uint8",
          "name": "PatientV",
          "type": "uint8"
        }
      ],
      "name": "validateClaim",
      "outputs": [],
      "payable": false,
      "stateMutability": "nonpayable",
      "type": "function"
    },
    {
      "constant": true,
      "inputs": [
        {
          "internalType": "bytes32",
          "name": "message",
          "type": "bytes32"
        },
        {
          "internalType": "bytes32",
          "name": "r",
          "type": "bytes32"
        },
        {
          "internalType": "bytes32",
          "name": "s",
          "type": "bytes32"
        },
        {
          "internalType": "uint8",
          "name": "v",
          "type": "uint8"
        }
      ],
      "name": "recover",
      "outputs": [
        {
          "internalType": "address",
          "name": "",
          "type": "address"
        }
      ],
      "payable": false,
      "stateMutability": "pure",
      "type": "function"
    },
    {
      "constant": true,
      "inputs": [
        {
          "internalType": "uint256",
          "name": "ClaimId",
          "type": "uint256"
        },
        {
          "internalType": "bytes32[]",
          "name": "medIds",
          "type": "bytes32[]"
        }
      ],
      "name": "hashClaimPermission",
      "outputs": [
        {
          "internalType": "bytes32",
          "name": "",
          "type": "bytes32"
        }
      ],
      "payable": false,
      "stateMutability": "view",
      "type": "function"
    }
  ],
  "bytecode": "0x608060405234801561001057600080fd5b50610afb806100206000396000f3fe6080604052600436106100915760003560e01c8063af647b3b11610059578063af647b3b1461039e578063bd96bd20146103f5578063ce776bf31461044c578063dbc837c5146104a9578063f4bb08d21461050057610091565b806334b611ba14610093578063388f2c3914610183578063612d665a1461021f57806399b467e414610290578063a5212d9a14610373575b005b34801561009f57600080fd5b50610181600480360360a08110156100b657600080fd5b8101908080359060200190929190803590602001906401000000008111156100dd57600080fd5b8201836020820111156100ef57600080fd5b8035906020019184602083028401116401000000008311171561011157600080fd5b919080806020026020016040519081016040528093929190818152602001838360200280828437600081840152601f19601f8201169050808301925050505050505091929192908035906020019092919080359060200190929190803560ff169060200190929190505050610569565b005b34801561018f57600080fd5b506101dd600480360360808110156101a657600080fd5b81019080803590602001909291908035906020019092919080359060200190929190803560ff16906020019092919050505061072a565b604051808273ffffffffffffffffffffffffffffffffffffffff1673ffffffffffffffffffffffffffffffffffffffff16815260200191505060405180910390f35b34801561022b57600080fd5b5061028e6004803603604081101561024257600080fd5b81019080803573ffffffffffffffffffffffffffffffffffffffff169060200190929190803573ffffffffffffffffffffffffffffffffffffffff169060200190929190505050610871565b005b34801561029c57600080fd5b5061035d600480360360408110156102b357600080fd5b8101908080359060200190929190803590602001906401000000008111156102da57600080fd5b8201836020820111156102ec57600080fd5b8035906020019184602083028401116401000000008311171561030e57600080fd5b919080806020026020016040519081016040528093929190818152602001838360200280828437600081840152601f19601f8201169050808301925050505050505091929192905050506108f6565b6040518082815260200191505060405180910390f35b34801561037f57600080fd5b5061038861097a565b6040518082815260200191505060405180910390f35b3480156103aa57600080fd5b506103b3610980565b604051808273ffffffffffffffffffffffffffffffffffffffff1673ffffffffffffffffffffffffffffffffffffffff16815260200191505060405180910390f35b34801561040157600080fd5b5061040a6109a5565b604051808273ffffffffffffffffffffffffffffffffffffffff1673ffffffffffffffffffffffffffffffffffffffff16815260200191505060405180910390f35b34801561045857600080fd5b506104a76004803603604081101561046f57600080fd5b81019080803573ffffffffffffffffffffffffffffffffffffffff1690602001909291908035151590602001909291905050506109cb565b005b3480156104b557600080fd5b506104be610a80565b604051808273ffffffffffffffffffffffffffffffffffffffff1673ffffffffffffffffffffffffffffffffffffffff16815260200191505060405180910390f35b34801561050c57600080fd5b5061054f6004803603602081101561052357600080fd5b81019080803573ffffffffffffffffffffffffffffffffffffffff169060200190929190505050610aa6565b604051808215151515815260200191505060405180910390f35b6000858560045460405160200180848152602001838051906020019060200280838360005b838110156105a957808201518184015260208101905061058e565b50505050905001828152602001935050505060405160208183030381529060405280519060200120905060006105e18286868661072a565b9050600360008273ffffffffffffffffffffffffffffffffffffffff1673ffffffffffffffffffffffffffffffffffffffff16815260200190815260200160002060009054906101000a900460ff1661063957600080fd5b6004600081548092919060010191905055507fafaccb82ad2312889db5c8fa3493ec8b6936bf4ee2bd12599ce0a0d20895b4638787600260009054906101000a900473ffffffffffffffffffffffffffffffffffffffff1660405180848152602001806020018373ffffffffffffffffffffffffffffffffffffffff1673ffffffffffffffffffffffffffffffffffffffff168152602001828103825284818151815260200191508051906020019060200280838360005b8381101561070c5780820151818401526020810190506106f1565b5050505090500194505050505060405180910390a150505050505050565b600060606040518060400160405280601c81526020017f19457468657265756d205369676e6564204d6573736167653a0a3332000000008152509050600081876040516020018080602001838152602001828103825284818151815260200191508051906020019080838360005b838110156107b3578082015181840152602081019050610798565b50505050905090810190601f1680156107e05780820380516001836020036101000a031916815260200191505b50935050505060405160208183030381529060405280519060200120905060018185888860405160008152602001604052604051808581526020018460ff1660ff1681526020018381526020018281526020019450505050506020604051602081039080840390855afa15801561085b573d6000803e3d6000fd5b5050506020604051035192505050949350505050565b816000806101000a81548173ffffffffffffffffffffffffffffffffffffffff021916908373ffffffffffffffffffffffffffffffffffffffff16021790555080600160006101000a81548173ffffffffffffffffffffffffffffffffffffffff021916908373ffffffffffffffffffffffffffffffffffffffff1602179055505050565b600082826004546040516020018084815260200180602001838152602001828103825284818151815260200191508051906020019060200280838360005b8381101561094f578082015181840152602081019050610934565b5050505090500194505050505060405160208183030381529060405280519060200120905092915050565b60045481565b6000809054906101000a900473ffffffffffffffffffffffffffffffffffffffff1681565b600260009054906101000a900473ffffffffffffffffffffffffffffffffffffffff1681565b600160009054906101000a900473ffffffffffffffffffffffffffffffffffffffff1673ffffffffffffffffffffffffffffffffffffffff163373ffffffffffffffffffffffffffffffffffffffff1614610a2557600080fd5b80600360008473ffffffffffffffffffffffffffffffffffffffff1673ffffffffffffffffffffffffffffffffffffffff16815260200190815260200160002060006101000a81548160ff0219169083151502179055505050565b600160009054906101000a900473ffffffffffffffffffffffffffffffffffffffff1681565b60036020528060005260406000206000915054906101000a900460ff168156fea265627a7a72315820a46fd59eb3369278d2998eecb54bcc51740b14c898e1b4909c168254b7cb2bfe64736f6c63430005110032",
  "source": "\t/**\n * PayClaims\n * \t1 Validate propor signs \n *\t\tThe contract validates the claim from the valid pharmacy account comes with  a signed message from a valid insured patient\n *  \t2 Validate claim data\n * \t3 Make payment\n */\n\npragma solidity ^0.5.17;\n\ncontract PayClaims {\n\n    event LogClaimPaid(uint claimId, bytes32[] medIds, address patient);\n\n    address public pharmacy;\n    address public insurer;\n    address public patient;\n    mapping (address => bool) public listofInsuredPatients;\n    uint public claimNonce;\n\n    /* Constructor */\n    function Constructor(address _pharmacy, address _insurer)  public  {\n        pharmacy = _pharmacy;\n        insurer = _insurer;\n    }\n\n    function() external  payable {}\n\n//  Patients Insurer-mantainance utility\n    function  updatedPatient(address _patient, bool _validity) public {\n\trequire(msg.sender == insurer);\n\tlistofInsuredPatients[_patient]=_validity;\n}\n\n    function validateClaim(uint claimId, bytes32[] memory medIds, bytes32 PatientR, bytes32 PatientS, uint8 PatientV) public  {\n        bytes32 message = keccak256(abi.encodePacked(claimId,  medIds, claimNonce));\n\t    address patientSig = recover(message, PatientR, PatientS, PatientV);\n        require(listofInsuredPatients[patientSig]);  // is the patient Address on insured patient list and is valid?\n        \n\t/* validate meds here and make payment\n\tto.call.value(amount); */\n\n        claimNonce++;\n        emit LogClaimPaid(claimId, medIds, patient );\n    }\n\n\n    /* Constant functions */\n    function recover(bytes32 message, bytes32 r, bytes32 s, uint8 v)\n        public pure returns (address)\n    {\n        bytes memory prefix = \"\\x19Ethereum Signed Message:\\n32\";\n        bytes32 prefixedHash = keccak256(abi.encode(prefix, message));\n        return ecrecover(prefixedHash, v, r, s);\n    }\n\n/* To make approval, all multoisigners account must sign this:  keccak256(addressOfTheWallet, recipientAddress, value, nonce)\n    For that they can invoke this function\n*/\n    function hashClaimPermission(uint ClaimId, bytes32[] memory medIds)  public view returns (bytes32)  {\n        return keccak256(abi.encode(ClaimId, medIds, claimNonce));\n    }\n}\n\n",
  "sourcePath": "/home/roberto/Documents/01 Pctos/ethereum-hackathon/insurance-claims-ethereum/dapps/contracts/PayClaims.sol",
  "compiler": {
    "name": "solc",
    "version": "0.5.17+commit.d19bba13.Emscripten.clang"
  },
  "schemaVersion": "3.2.5",
  "updatedAt": "2020-10-13T15:27:01.967Z",
  "networkType": "ethereum",
  "devdoc": {
    "methods": {}
  },
  "userdoc": {
    "methods": {}
  }
}